:020000040040BA
:1000000098D6002065014000E9014000E901400068
:10001000E9014000E9014000E90140000000000062
:100020000000000000000000000000005508400033
:10003000E90140000000000065094000B9094000E6
:10004000E9014000E9014000E9014000E901400008
:10005000E9014000E9014000E9014000E9014000F8
:10006000610540007905400091054000A905400068
:10007000C1054000E9014000E9014000E9014000FC
:10008000E9014000E9014000E9014000E9014000C8
:10009000E9014000E9014000E9014000E9014000B8
:1000A000E9014000E9014000E9014000E9014000A8
:1000B000E9014000E9014000E9014000E901400098
:1000C000E9014000E9014000E9014000E901400088
:1000D000E9014000E9014000E9014000E901400078
:1000E000E9014000000000000000000000000000E6
:1000F000000000000000000010B5054C237833B963
:10010000044B13B10448AFF300800123237010BDEA
:100110005004002000000000F04940000C4B43B1A7
:100120000C480D4910B5AFF300800C48036823B9A3
:1001300010BD0A48036833B97047094B002BF7D04C
:10014000BDE810401847064B002BF5D0184700BFFC
:1001500000000000F049400054040020F049400035
:100160000000000080B582B000AF164B7B60164BDC
:100170003B607A683B689A420CD007E03B681A1DE6
:100180003A607A68111D796012681A603B680F4AFC
:100190009342F3D30E4B3B6004E03B681A1D3A6078
:1001A00000221A603B680B4A9342F6D30A4B7B60ED
:1001B0000A4A7B6823F07F039360094B9847094BF9
:1001C0009847FEE7F0494000000000204C04002062
:1001D0005004002094A600200000400000ED00E044
:1001E00061454000D903400080B400AFFEE7000045
:1001F00080B500AF184B4FF4A0621A60174B1B6A12
:1002000003F08073002B09D1144B154A1A6200BF0A
:10021000124B9B6E03F00103002BF9D00F4B114AD8
:100220001A6200BF0D4B9B6E03F48033002BF9D094
:100230000A4A0A4B1B6B23F0030343F001031363C9
:1002400000BF064B9B6E03F00803002BF9D0064B52
:10025000984700BF80BD00BF000A0E4000040E405A
:1002600009083700090837016D02400080B400AF6B
:10027000524B1B6B03F00303012B14D0012B02D351
:10028000022B38D07AE04E4B5B6903F08003002BE1
:1002900004D04C4B4FF400421A606FE0494B4FF4CE
:1002A000FA421A606AE0454B1B6A03F08073002B28
:1002B00003D0444B444A1A6060E0424B434A1A6000
:1002C0003E4B1B6A03F07003102B04D0202B08D088
:1002D000002B0ED00EE03B4B1B685B00394A1360CD
:1002E00008E0384B1A6813465B001344354A136024
:1002F00000E000BF42E0314B1B6A03F08073002B2B
:1003000003D0304B324A1A601CE02E4B2F4A1A6041
:100310002A4B1B6A03F07003102B04D0202B08D04B
:10032000002B0ED00EE0274B1B685B00254A1360A4
:1003300008E0244B1A6813465B001344214A1360FB
:1003400000E000BF1D4B1B6B03F00303022B14D115
:100350001A4B9B6A1B0CC3F30A030133194A126838
:1003600002FB03F3174A1360144B9B6ADBB2154A76
:100370001268B2FBF3F3134A136000BF0F4B1B6B01
:1003800003F07003702B08D10E4B1B68114AA2FBBF
:1003900003235B080B4A13600AE0084B1B6B1B0925
:1003A00003F00703074A126822FA03F3054A1360B1
:1003B00000BFBD465DF8047B704700BF00040E40DF
:1003C00010180E400C0000200024F40000093D002D
:1003D000001BB700ABAAAAAA80B500AF074B98478D
:1003E000074B9847034683F00103DBB2002B00D094
:1003F000FEE7044B9847044B9847FEE7313840002E
:10040000F927400085374000B516400090B583B00D
:1004100002AF0920184B98470C20174B9847012230
:1004200020211648164B9847012202211348144BED
:10043000984701224FF480311048114B9847012210
:100440004FF400410D480E4B9847002300930023C2
:1004500001224FF400310B480B4CA04700230093BE
:10046000002301224FF000610648074CA04700BF5F
:100470000437BD4690BD00BFCD414000000E0E4088
:10048000D13F400000140E405140400080B584B080
:1004900000AF7860396078682C4B9847F8607868CE
:1004A0002B4B98470246FB681340FB60FB68002B10
:1004B0003CD00023BB6034E0264ABB681B011344D8
:1004C0001A683B689A4226D1224ABB681B01134432
:1004D00004331A68FB681340002B1CD01D4ABB680C
:1004E0001B0113440C331B681A49BA6812010A44F1
:1004F00010681849BA6812010A4404321268114699
:100500009847144ABB681B01134404331B68DB4340
:10051000FA681340FB60BB680133BB60BB68062B05
:1005200003D8FB68002BC7D100E000BF0A4B1B6853
:10053000002B07D0094B1B68002B03D0074B1B680F
:100540007868984700BF1037BD4680BD9D41400088
:10055000B54140006C0400206CA60020DC040020A3
:1005600080B500AF09210248024B984700BF80BD0B
:10057000000E0E408D04400080B500AF0A210248F5
:10058000024B984700BF80BD00100E408D04400014
:1005900080B500AF0B210248024B984700BF80BDD9
:1005A00000120E408D04400080B500AF0C210248BF
:1005B000024B984700BF80BD00140E408D044000E0
:1005C00080B500AF0D210248024B984700BF80BDA7
:1005D00000160E408D04400080B483B000AF7860F8
:1005E0007B6803F108027B685A607B684FF0FF323A
:1005F0009A607B6803F108027B68DA607B6803F12C
:1006000008027B681A617B6800221A6000BF0C3701
:10061000BD465DF8047B704780B483B000AF78605E
:100620007B6800221A6100BF0C37BD465DF8047B71
:10063000704780B485B000AF786039607B685B68D4
:10064000FB60FB685A683B685A607B685A683B6885
:100650009A60FB685B683A689A60FB683A685A601F
:100660007B683A685A603B687A681A617B681B68E5
:100670005A1C7B681A6000BF1437BD465DF8047BC6
:10068000704780B485B000AF786039603B681B6804
:10069000BB60BB68B3F1FF3F03D17B681B69FB60A4
:1006A0000CE07B680833FB6002E0FB685B68FB6082
:1006B000FB685B681A68BB689A42F6D9FB685A689F
:1006C0003B685A603B685B683A689A603B68FA68C6
:1006D0009A60FB683A685A603B687A681A617B687E
:1006E0001B685A1C7B681A6000BF1437BD465DF852
:1006F000047B704780B485B000AF78607B685B682E
:100700007A6892689A607B689B687A6852685A60D7
:100710007B681B69FB60FB685A687B689A4203D15F
:100720007B689A68FB685A607B6800221A61FB68E4
:100730001B685A1EFB681A60FB681B681846143752
:10074000BD465DF8047B704780B483B000AF78602D
:100750007B68072B25D801A252F823F07D074000C3
:1007600083074000890740008F074000930740003F
:10077000970740009B0740009F0740004FF4FA4353
:1007800010E04FF400430DE04FF400430AE0084B43
:1007900008E0084B06E0084B04E0084B02E0064B7B
:1007A00000E0002318460C37BD465DF8047B704717
:1007B00000093D0000127A00001BB7000024F4007D
:1007C00080B500AF0620054B9847024613465B00F4
:1007D00013449B005B08184680BD00BF49074000DA
:1007E00080B500AF024B98470346184680BD00BF56
:1007F000C107400080B485B000AFF860B9607A608E
:10080000FB68043BFB60FB684FF080721A60FB687A
:10081000043BFB60BA68FB681A60FB68043BFB6042
:10082000FB6800221A60FB68143BFB607A68FB6877
:100830001A60FB68043BFB60FB686FF002021A6001
:10084000FB68203BFB60FB6818461437BD465DF82B
:10085000047B7047054B19680868B0E8F04F80F3D7
:1008600009884FF0000080F311887047ECA4002045
:1008700000BF00BF04480068006880F3088862B6C3
:1008800000DF00BF00BF000008ED00E080B500AF52
:100890000E4A0E4B1B6843F4700313600B4A0B4B5C
:1008A0001B6843F070431360094B9847094B0022C3
:1008B0001A60094B9847094A084B1B6843F04043AC
:1008C0001360074B98470023184680BD20ED00E0D9
:1008D000E9094000100000201D0A400034EF00E04C
:1008E0007508400080B400AF044B4FF080521A608E
:1008F00000BFBD465DF8047B704700BF04ED00E01B
:1009000080B500AF044B9847044B1B680133034A82
:10091000136000BF80BD00BF4909400010000020E7
:1009200080B500AF064B1B68013B054A1360044BC2
:100930001B68002B02D10020024B984700BF80BDEE
:10094000100000205B094000EFF311804FF0A00180
:1009500081F3118870470023184680F3118870478F
:1009600000BF0000EFF30980114B1A681EF0100F52
:1009700008BF20ED108A20E9F04F10602DE90840F3
:100980004FF0A00080F3118801F02EF84FF0000026
:1009900080F31188BDE8084019680868B0E8F04F96
:1009A0001EF0100F08BFB0EC108A80F30988704762
:1009B000ECA4002000BF00BF80B500AF064B4FF095
:1009C00080521A60054B9847054B98470020054B0D
:1009D000984700BF80BD00BF04ED00E0490940001A
:1009E0009D1840005B09400098B500AF074C084BCC
:1009F00098470246074BA3FB02239B09013B236058
:100A0000054B07221A6000BF98BD00BF14E000E04C
:100A1000E1074000D34D621010E000E0DFF80C0069
:100A2000016841F470010160704700BF88ED00E08B
:100A300080B586B000AF78600023FB60344B9847E8
:100A4000344B1B68002B01D1334B98477B68002B3C
:100A50000ED010231A467B6813447B607B6803F03A
:100A60000703002B04D07B6823F0070308337B6067
:100A70007B68002B45D04FF420427B68934240D2E4
:100A8000264B3B61254B1B687B6104E07B693B6126
:100A90007B691B687B617B695A687B689A4203D2D9
:100AA0007B691B68002BF1D11A4B1B687A699A424B
:100AB00027D03B691B6810221344FB607B691A68CE
:100AC0003B691A607B695A687B68D31A102252000E
:100AD00093420FD97A697B681344BB607B695A687B
:100AE0007B68D21ABB685A607B697A685A60B868BA
:100AF0000B4B98470B4B1A687B695B68D31A094A02
:100B00001360094B9847FB6818461837BD4680BDEF
:100B100035174000E8A40020810B4000E0A400202D
:100B2000110C4000140000205117400080B584B023
:100B300000AF78607B68FB607B68002B14D01023CB
:100B40005B42FA681344FB60FB68BB60084B984744
:100B5000BB685A68074B1B681344064A1360B868A1
:100B6000054B9847054B984700BF1037BD4680BDE1
:100B70003517400014000020110C400051174000B0
:100B800080B582B000AF1D4B1D4A1A601B4B00227E
:100B90005A604FF420421A4B13447B6010235B428F
:100BA0007A6813447B60174A7B681360154B1B6897
:100BB00003F00703002B03D0134B984700BFFDE75A
:100BC000104B1B6800225A600E4B1B6800221A60F3
:100BD0000B4B3B604FF4204310229A1A3B685A603B
:100BE000084B1A683B681A60084B1B6810229B1A56
:100BF000064A136000BF0837BD4680BDE0A4002050
:100C0000E0040020E8A4002049094000140000206E
:100C100080B485B000AF7860284BFB6002E0FB68D1
:100C20001B68FB60FB681A687B689A42F7D3FB6815
:100C3000BB60FB685B68BA681A447B689A4208D15B
:100C4000FB685A687B685B681A44FB685A60FB68FB
:100C50007B607B68BB607B685B68BA681A44FB6832
:100C60001B689A4218D1FB681A68154B1B689A4298
:100C70000DD07B685A68FB681B685B681A447B6808
:100C80005A60FB681B681A687B681A6008E00C4BA6
:100C90001A687B681A6003E0FB681A687B681A6050
:100CA000FA687B689A4202D0FB687A681A6000BFD3
:100CB0001437BD465DF8047B704700BFE0A40020F8
:100CC000E8A4002080B582B000AF786039607B680E
:100CD000002B03D1274B984700BFFDE7264B9847D1
:100CE0007B681A687B68DB6B7968096C01FB03F32E
:100CF0001A447B685A607B6800229A637B681A6892
:100D00007B689A607B681A687B68DB6B013B79685B
:100D1000096C01FB03F31A447B68DA607B684FF0CF
:100D2000FF325A647B684FF0FF329A643B68002BB5
:100D30000ED17B681B69002B14D07B6810331846DA
:100D40000E4B98470346012B0CD10D4B984709E0F9
:100D50007B68103318460B4B98477B682433184642
:100D6000084B9847084B9847012318460837BD465B
:100D700080BD00BF4909400001094000751B4000CB
:100D8000E5084000D90540002109400080B588B041
:100D900000AFF860B9601346FB710023FB61FB688C
:100DA000002B2AD050201B4B9847B861BB69002B01
:100DB00023D0FB68BA6802FB03F301337B617869D7
:100DC000144B98470246BB691A60BB691B68002B2D
:100DD00010D0BB69FA68DA63BB69BA681A6401218A
:100DE000B8690D4B9847BB69FA7983F84D20BB6908
:100DF000FB6102E0B869094B9847FB69002B03D1FE
:100E0000074B984700BFFDE7FB6918462037BD46F2
:100E100080BD00BF310A4000C50C40002D0B4000D2
:100E20004909400080B588B000AFF860B9607A60C9
:100E30003B600023FB61FB68002B03D1464B9847C6
:100E400000BFFDE7BB68002B03D1FB681B6C002BC8
:100E500001D1012300E00023002B03D13E4B984732
:100E600000BFFDE73D4B9847FB689A6BFB68DB6B67
:100E70009A4216D23A68B968F868394B9847FB68C5
:100E80005B6A002B09D0FB6824331846354B984722
:100E90000346012B01D1344B9847344B984701232B
:100EA00056E07B68002B03D1304B984700234FE07E
:100EB000FB69002B06D107F1140318462C4B984709
:100EC0000123FB61294B98472A4B9847234B9847AE
:100ED000FB685B6CB3F1FF3F02D1FB6800225A64F0
:100EE000FB689B6CB3F1FF3F02D1FB6800229A6460
:100EF0001E4B98473A1D07F11403114618461E4B26
:100F000098470346002B1DD1F8681C4B98470346B1
:100F1000002B11D0FB6810337A6811461846184B25
:100F20009847F868174B9847174B98470346002B8C
:100F300098D10D4B984795E7F868124B9847124B9C
:100F400098478FE7F8680F4B98470F4B9847002357
:100F500018462037BD4680BD4909400001094000C0
:100F60001D124000751B4000E508400021094000AB
:100F7000311C4000351740006D1C40000914400032
:100F80008D1A40002D1340005117400080B586B0E7
:100F900000AFF860B9607A603B60FB68002B03D15A
:100FA000254B984700BFFDE7BB68002B03D1FB68CA
:100FB0001B6C002B01D1012300E00023002B03D187
:100FC0001D4B984700BFFDE71B4B98473861FB68F6
:100FD0009A6BFB68DB6B9A4224D23A68B968F8686E
:100FE000164B9847FB689B6CB3F1FF3F12D1FB682F
:100FF0005B6A002B13D0FB6824331846104B9847CC
:101000000346002B0BD07B68002B08D07B680122A5
:101010001A6004E0FB689B6C5A1CFB689A6401230D
:101020007B6101E000237B613869064B98477B694F
:1010300018461837BD4680BD490940001D124000C2
:10104000751B40005B09400080B588B000AFF860B8
:10105000B9607A603B600023FB61FB68002B03D121
:101060005F4B984700BFFDE7BB68002B03D1FB68CF
:101070001B6C002B01D1012300E00023002B03D1C6
:10108000574B984700BFFDE7564B9847FB689B6B53
:10109000002B3BD0FB68DB68BB61B968F868524B3A
:1010A00098473B68002B1CD1FB689B6B5A1EFB6862
:1010B0009A63FB681B68002B04D14C4B984702468F
:1010C000FB685A60FB681B69002B1BD0FB68103360
:1010D0001846474B98470346012B13D1454B984779
:1010E00010E0FB68BA69DA60FB685B6A002B09D024
:1010F000FB68243318463E4B98470346002B01D02B
:101100003C4B98473C4B9847012364E07B68002B9D
:1011100003D1394B984700235DE0FB69002B06D1D2
:1011200007F110031846354B98470123FB61324BFA
:101130009847334B98472B4B9847FB685B6CB3F150
:10114000FF3F02D1FB6800225A64FB689B6CB3F13D
:10115000FF3F02D1FB6800229A64274B98473A1D53
:1011600007F1100311461846264B98470346002BFB
:101170002BD1F868244B98470346002B1FD0FB68FF
:101180001B68002B08D1174B9847FB685B68184613
:101190001E4B9847184B9847FB6824337A681146D2
:1011A00018461B4B9847F8681A4B98471A4B9847B4
:1011B0000346002B7FF468AF0E4B984764E7F8684E
:1011C000144B9847144B98475EE7F868114B9847C3
:1011D000114B9847002318462037BD4680BD00BFFD
:1011E0004909400001094000DD124000ED1F4000A8
:1011F000751B4000E508400021094000311C4000FB
:10120000351740006D1C4000D513400049204000B8
:101210008D1A40002D1340005117400080B584B056
:1012200000AFF860B9607A60FB681B6C002B0CD1D2
:10123000FB681B68002B43D1FB685B681846254B95
:101240009847FB6800225A603AE07B68002B19D16E
:10125000FB689868FB681B6C1A46B9681E4B984778
:10126000FB689A68FB681B6C1A44FB689A60FB6811
:101270009A68FB685B689A4222D3FB681A68FB682D
:101280009A601DE0FB68D868FB681B6C1A46B96859
:10129000114B9847FB68DA68FB681B6C5B421A4489
:1012A000FB68DA60FB68DA68FB681B689A4207D261
:1012B000FB685A68FB681B6C5B421A44FB68DA6087
:1012C000FB689B6B5A1CFB689A6300BF1037BD46D6
:1012D00080BD00BFFD204000B145400080B582B018
:1012E00000AF786039607B681B68002B18D07B6882
:1012F000DA687B681B6C1A447B68DA607B68DA68A2
:101300007B685B689A4203D37B681A687B68DA6003
:101310007B68D9687B681B6C1A463868024B984713
:1013200000BF0837BD4680BDB145400080B582B0E2
:1013300000AF7860234B984712E07B685B6A002B14
:1013400013D07B68243318461F4B98470346002B65
:1013500001D01E4B98477B689B6C5A1E7B689A6431
:101360007B689B6C002BE8DC00E000BF7B684FF0E3
:10137000FF329A64164B9847124B984712E07B68ED
:101380001B69002B13D07B68103318460E4B98470F
:101390000346002B01D00D4B98477B685B6C5A1EAF
:1013A0007B685A647B685B6C002BE8DC00E000BF64
:1013B0007B684FF0FF325A64054B984700BF0837EF
:1013C000BD4680BD01094000751B4000211D400045
:1013D0002109400080B584B000AF7860084B984781
:1013E0007B689B6B002B0CBF01230023DBB2FB60EF
:1013F000044B9847FB6818461037BD4680BD00BFB8
:10140000010940002109400080B584B000AF786038
:10141000094B98477B689A6B7B68DB6B9A420CBFE1
:1014200001230023DBB2FB60044B9847FB6818469E
:101430001037BD4680BD00BF0109400021094000B2
:1014400080B582B000AF78603960124B98477B68F6
:101450005B6CB3F1FF3F02D17B6800225A647B686A
:101460009B6CB3F1FF3F02D17B6800229A640A4B68
:1014700098477B689B6B002B05D17B6824333968C8
:101480001846064B98477868054B984700BF0837C1
:10149000BD4680BD0109400021094000111B4000EC
:1014A0002D13400090B58BB002AFF860B9603B607F
:1014B0001346FB80FB68002B03D1544B984700BFB9
:1014C000FDE73B6B042B03D9504B984700BFFDE76A
:1014D000FB88B96B18464E4B9847B861BB69002B27
:1014E0007DD0BB691A6BFB8803F18043013B9B00F5
:1014F00013447B617B6923F007037B617B6903F005
:101500000703002B03D0414B984700BFFDE7FB8842
:101510000093FB6B3A6BB968B8693E4CA0473A68D8
:10152000F96878693C4B98470246BB691A607B6B47
:10153000002B02D07B6BBA691A60384B9847384B46
:101540001B680133364A1360364B1B68002B09D1E8
:10155000344ABB691360324B1B68012B0FD1324BED
:1015600098470CE0314B1B68002B08D12D4B1B68B2
:10157000DA6A3B6B9A4202D82A4ABB691360BB699C
:10158000DA6A2B4B1B689A4203D9BB69DB6A284A8B
:101590001360284B1A68BB691A64264B1B68013319
:1015A000244A1360BB69DA6A234B1B689A4203D949
:1015B000BB69DB6A204A1360BB69DA6A13469B0089
:1015C00013449B001D4A1A44BB6904331946104654
:1015D0001B4B98470123FB611A4B984702E04FF0E1
:1015E000FF33FB61FB69012B0BD1104B1B68002BF8
:1015F00007D00C4B1B68DA6A3B6B9A4201D2124B44
:101600009847FB6918462437BD4690BD49094000FC
:10161000591F4000611D4000F507400001094000CE
:10162000C4A50020ECA40020D51D4000D4A50020B6
:10163000CCA50020E8A50020D0A50020F0A4002023
:101640003306400021094000E508400080B584B021
:1016500000AF78600023FB607B68002B12D00E4B3C
:1016600098470E4B1A687B681344BB600C4B1B6891
:10167000043318460B4B9847B8680B4B98470B4BF5
:101680009847F860FB68002B01D1094B984700BFD1
:101690001037BD4680BD00BF35174000C8A50020EB
:1016A000ECA40020F5064000E91E40005117400060
:1016B000E508400090B587B004AF002303930023F2
:1016C00002930023019300230093002382221149F7
:1016D0001148124CA04778607B68012B02D1104B57
:1016E000984778607B68012B09D10E4B98470E4BC9
:1016F00001221A600D4B00221A600D4B98477B683F
:10170000002B03D1074B984700BFFDE700BF0C3704
:10171000BD4690BD04494000391D4000A51440005D
:101720008121400049094000D4A50020C8A500201F
:101730008D08400080B400AF044B1B680133034A9E
:10174000136000BFBD465DF8047B7047D8A500203C
:1017500090B583B000AF00237B60364B1B68002B35
:1017600003D1354B984700BFFDE7344B9847314BC9
:101770001B68013B2F4A13602E4B1B68002B52D174
:101780002F4B1B68002B4ED000233B6027E02D4BD6
:10179000DB68DC6804F1180318462B4B9847231DBF
:1017A0001846294B9847E26A284B1B689A4202D98F
:1017B000E36A264A1360E26A13469B0013449B00C7
:1017C000234A1344221D11461846224B9847E26AC9
:1017D000214B1B68DB6A9A4201D301233B60194B02
:1017E0001B68002BD3D11D4B1B68002B0DD006E0CE
:1017F0001B4B9847194B1B68013B184A1360174B4A
:101800001B68002BF4D101233B603B68012B03D004
:10181000144B1B68012B06D101237B60114B002266
:101820001A60114B9847114B98477B6818460C3744
:10183000BD4690BDD8A500204909400001094000DF
:10184000C4A5002084A50020F5064000D0A50020F6
:10185000F0A4002033064000ECA40020DCA500200A
:101860009D184000E0A50020E50840002109400047
:1018700080B582B000AF064B9847064B1B687B6073
:10188000054B98477B6818460837BD4680BD00BFAA
:1018900001094000C8A500202109400080B584B09E
:1018A00000AF454B1B68002B7BD1444B1B680133B9
:1018B000424A1360414B1B68002B2AD1404B1B68E6
:1018C0001B68002B03D03F4B984700BFFDE73C4B04
:1018D0001B68FB603C4B1B68394A13603A4AFB6843
:1018E00013603A4B1B680133384A1360344B1B6852
:1018F0001B68002B04D1364B4FF0FF321A6008E012
:101900002F4B1B68DB68DB68BB60BB685B68304AD9
:1019100013602A4B1A682E4B1B689A4247D3284BF8
:101920001B681B68002B04D1294B4FF0FF321A6053
:101930003DE0234B1B68DB68DB68BB60BB685B6812
:101940007B601E4B1A687B689A4203D2204A7B68F0
:1019500013602CE0BB68043318461E4B9847BB68E5
:101960009B6A002B04D0BB6818331846194B984764
:10197000BB68DA6A184B1B689A4203D9BB68DB6AFA
:10198000154A1360BB68DA6A13469B0013449B0038
:10199000124A1A44BB68043319461046104B984744
:1019A000BDE7104B1B6801330E4A1360FFE700BF11
:1019B0001037BD4680BD00BFD8A50020C8A50020B7
:1019C0007CA500204909400080A50020E4A5002056
:1019D00018000020F5064000D0A50020F0A400204B
:1019E00033064000DCA5002080B582B000AF214B5B
:1019F0001B68002B10D0204B01221A6035E01F4BD2
:101A00001B68002B03D11E4B984700BFFDE71B4B03
:101A10001B68013B194A1360184B1A681949134691
:101A20009B0013449B000B441B68002BE7D0134B17
:101A30001A6813469B0013449B00124A13447B60B0
:101A40007B685B685A687B685A607B685A687B6809
:101A500008339A4204D17B685B685A687B685A6095
:101A60007B685B68DB68084A136000BF0837BD46C7
:101A700080BD00BFD8A50020E0A50020D0A5002093
:101A800049094000F0A40020ECA4002080B584B0F7
:101A900000AF786039607B68002B03D1144B984706
:101AA00000BFFDE7134B1B68183319467868124BCB
:101AB0009847104B1B6804331846104B98473B68F7
:101AC000B3F1FF3F07D10B4B1B68043319460C4899
:101AD0000C4B984707E00C4B1A683B681344FB60BB
:101AE000F8680A4B984700BF1037BD4680BD00BF5D
:101AF00049094000ECA4002083064000F5064000A0
:101B0000B0A5002033064000C8A50020E91E400013
:101B100080B584B000AF786039607B68002B03D15A
:101B20000E4B984700BFFDE70D4B1B681833194655
:101B300078680C4B98470A4B1B68043318460A4BCD
:101B400098470A4B1A683B681344FB60F868084BD7
:101B5000984700BF1037BD4680BD00BF490940000F
:101B6000ECA4002033064000F5064000C8A5002084
:101B7000E91E400080B584B000AF78607B68DB6808
:101B8000DB68BB60BB68002B03D1214B984700BFCB
:101B9000FDE7BB68183318461E4B98471E4B1B6861
:101BA000002B1DD1BB68043318461A4B9847BB68FD
:101BB000DA6A1A4B1B689A4203D9BB68DB6A174A78
:101BC0001360BB68DA6A13469B0013449B00144AF7
:101BD0001A44BB68043319461046124B984705E077
:101BE000BB681833194610480E4B9847BB68DA6A31
:101BF0000E4B1B68DB6A9A4202D30123FB6001E0B3
:101C00000023FB60FB6818461037BD4680BD00BF4F
:101C100049094000F5064000D8A50020D0A50020C5
:101C2000F0A400203306400084A50020ECA400208E
:101C300080B582B000AF78607B68002B03D1084B81
:101C4000984700BFFDE7074B1A687B681A60064B90
:101C50001A687B685A6000BF0837BD4680BD00BF68
:101C600049094000E4A50020C8A5002080B584B043
:101C700000AF786039607B68002B03D1224B984716
:101C800000BFFDE73B68002B03D11F4B984700BF07
:101C9000FDE71E4B98473B681B68B3F1FF3F02D13D
:101CA0000023FB6029E07B681A68194B1B689A4285
:101CB00008D07B685A68174B1B689A4202D80123E8
:101CC000FB601AE0134B1A687B685B68D21A3B68AA
:101CD0001B689A420FD20F4B1A687B685B68D31A55
:101CE0003A681268D21A3B681A6078680A4B9847BB
:101CF0000023FB6001E00123FB60084B9847FB6871
:101D000018461037BD4680BD490940000109400012
:101D1000E4A50020C8A50020311C40002109400096
:101D200080B400AF034B01221A6000BFBD465DF8CE
:101D3000047B7047E0A5002080B582B000AF7860DA
:101D4000044B9847044B1B68012BF9D9034B984768
:101D5000F6E700BF591E4000F0A40020E50840004F
:101D600080B584B000AFF860B9607A603B60FB6812
:101D700034330A22B9681846144B9847FB6800228E
:101D800083F83D207B68042B01D904237B60FB682A
:101D90007A68DA62FB687A689A64FB6804331846EA
:101DA0000B4B9847FB6818331846094B9847FB685C
:101DB000FA681A617B68C3F10502FB689A61FB68E7
:101DC000FA685A6200BF1037BD4680BD81474000A7
:101DD0001906400080B582B000AF00237B600CE0A4
:101DE0007A6813469B0013449B00124A134418461A
:101DF000114B98477B6801337B607B68042BEFD9DC
:101E00000E480D4B98470E480B4B98470D480A4B10
:101E100098470D48084B98470C48074B98470C4B80
:101E2000064A1A600B4B064A1A6000BF0837BD46C7
:101E300080BD00BFF0A40020D905400054A50020BB
:101E400068A5002084A5002098A50020B0A500204A
:101E50007CA5002080A5002080B582B000AF28E0DE
:101E6000184B9847184B1B68002B0CBF012300230D
:101E7000DBB27B60154B98477B68002B19D1144B64
:101E80009847114BDB68DB683B603B6804331846BE
:101E9000104B9847104B1B68013B0F4A13600F4BC8
:101EA0001B68013B0D4A13600D4B984738680D4B7A
:101EB00098470A4B1B68002BD2D100BF0837BD469C
:101EC00080BD00BF3517400098A500205117400085
:101ED00001094000F5064000C4A50020ACA5002083
:101EE00021094000C91F400080B582B000AF786072
:101EF000134B1B687A685A60124B1B687A689A42C7
:101F000009D2114B1A680E4B1B6804331946104650
:101F10000E4B984710E00E4B1A68094B1B680433B0
:101F200019461046094B98470A4B1B687A689A4233
:101F300002D2084A7B68136000BF0837BD4680BDE7
:101F4000ECA40020C8A5002080A500208306400046
:101F50007CA500201800002080B584B000AF0346A7
:101F60003960FB804C20154B9847F860FB68002BCC
:101F70001ED03B68002B06D1FB889B0018460F4BF8
:101F80009847034600E03B68FA681363FB681B6BE5
:101F9000002B05D1F8680A4B98470023FB6007E047
:101FA000FB68186BFB889B001A46A521054B9847D8
:101FB000FB6818461037BD4680BD00BF310A40009F
:101FC0002D0B4000E546400080B582B000AF786040
:101FD0007B681B6B1846044B98477868024B984700
:101FE00000BF0837BD4680BD2D0B400080B483B0D4
:101FF00000AF054B1B687B607B6818460C37BD46FD
:102000005DF8047B704700BFECA4002080B483B06F
:1020100000AF0B4B1B68002B02D100237B6008E054
:10202000084B1B68002B02D101237B6001E00223D7
:102030007B607B6818460C37BD465DF8047B7047B3
:10204000D4A50020D8A5002080B584B000AF78606A
:102050007B68FB607B68002B41D0FB68DA6A224B0F
:102060001B68DB6A9A423AD21F4B1B68DB6AC3F1DA
:102070000502FB689A61FB685969FB68DA6A1346D6
:102080009B0013449B00194A1344994222D1FB68D8
:1020900004331846164B9847134B1B68DA6AFB68E3
:1020A000DA62FB68DA6A134B1B689A4203D9FB6851
:1020B000DB6A104A1360FB68DA6A13469B0013441C
:1020C0009B000A4A1A44FB680433194610460A4B1F
:1020D000984704E0044B1B68DA6AFB68DA6200BFC9
:1020E0001037BD4680BD00BFECA40020F0A4002046
:1020F000F5064000D0A500203306400080B584B02E
:1021000000AF78607B68FB607B68002B2CD0FB689D
:10211000DA6AFB689B6C9A4226D0FB680433184647
:10212000134B9847FB689A6CFB68DA62FB68DB6AC2
:10213000C3F10502FB689A61FB68DA6A0D4B1B6804
:102140009A4203D9FB68DB6A0A4A1360FB68DA6AC1
:1021500013469B0013449B00074A1A44FB68043350
:1021600019461046054B984700BF1037BD4680BD45
:10217000F5064000D0A50020F0A400203306400062
:1021800090B587B004AF00237B60114B9847114B8B
:102190001B68002B0FD0002303930023029300231E
:1021A00001930423009300234FF482720A490B48E1
:1021B0000B4CA04778607B68002B03D1094B9847F4
:1021C00000BFFDE77B6818460C37BD4690BD00BFD9
:1021D0009D2640001CA6002024494000F922400012
:1021E000A51440004909400090B589B000AFF860DF
:1021F000B9607A603B600023FB611A4B1B68002BBF
:102200002AD0BB683B617B687B61FB68BB613B6834
:10221000002B18D1144B98470346012B09D1114BC1
:10222000186807F1100100233A6B104CA047F861C1
:1022300012E00C4B186807F11001002300220B4C30
:10224000A047F86108E0074B186807F11001002368
:102250003A68074CA047F861FB6918462437BD4629
:1022600090BD00BF1CA600200D204000250E4000A0
:102270008D0F400090B587B002AF78603960194B80
:102280001B68DB68DB68FB60FB6804331846164B91
:102290009847FB68DB69012B1BD1FB689A697B6857
:1022A000D1187B683A68F868104CA0470346012BA8
:1022B0000FD10023009300237A680021F8680C4CAA
:1022C000A047B860BB68002B03D10A4B984700BFFA
:1022D000FDE7FB685B6AF868984700BF1437BD46A6
:1022E00090BD00BF14A60020F50640004124400028
:1022F000E92140004909400080B584B000AF786012
:1023000007F108031846054B9847F860BB68194663
:10231000F868034B9847034B9847F1E7AD2340001B
:1023200029234000C924400080B584B000AF786004
:102330003960174B984707F108031846154B984723
:10234000F860BB68002B1DD13B68002B0AD17A686E
:10235000FB689A4206D8104B9847F96878680F4B8B
:10236000984711E00E4B18687A68FB68D31A194633
:102370000C4B9847084B98470346002B04D10A4B57
:10238000984701E0044B984700BF1037BD4680BD19
:1023900035174000F52340005117400075224000DA
:1023A0001CA6002041144000E508400080B485B020
:1023B00000AF78600E4B1B681B68002B0CBF01231D
:1023C0000023DBB21A467B681A607B681B68002B0F
:1023D00005D1074B1B68DB681B68FB6001E000232D
:1023E000FB60FB6818461437BD465DF8047B7047F8
:1023F00014A6002080B584B000AF78600D4B9847DC
:10240000F8600D4B1B68FA689A4208D20A4B1B68A9
:1024100018460A4B98477B6801221A6002E07B68E5
:1024200000221A60044AFB681360FB6818461037E4
:10243000BD4680BD7118400020A60020D525400073
:1024400080B586B000AFF860B9607A603B60002369
:102450007B61FB68BA685A60FB68FA681A61BA68FF
:102460007B689A4212D87A683B68D21AFB689B69EB
:102470009A4202D301237B611BE0104B1A68FB6870
:102480000433194610460E4B984712E07A683B68B1
:102490009A4206D2BA683B689A4202D301237B6112
:1024A00007E0084B1A68FB68043319461046044BD2
:1024B00098477B6918461837BD4680BD18A600208E
:1024C0008306400014A6002090B58BB002AF3B1DE0
:1024D0001846384B9847F8615DE03B69BB61BB69C2
:1024E000002B08D0BB695B69002B04D0BB690433A7
:1024F0001846314B9847BB68032B4BD801A252F8C2
:1025000023F000BF152540009725400063254000BB
:102510008D254000FA68BB699B69D118FB68FA6990
:10252000B869264CA0470346012B34D1BB695B6ACE
:10253000B8699847BB69DB69012B2CD1FA68BB6984
:102540009B691A440023009300230021B8691C4CA6
:10255000A04778617B69002B1DD11A4B984700BFBB
:10256000FDE7FA68BB699A61BB699B69002B03D1DF
:10257000144B984700BFFDE7BB699A69FB69D11806
:10258000FB69FA69B8690D4CA04704E0B8690E4BC5
:10259000984700E000BF0D4B186807F108010023C1
:1025A00000220B4CA0470346002B96D100BF2437D6
:1025B000BD4690BDF5234000F50640004124400093
:1025C000E9214000490940002D0B40001CA60020D5
:1025D0004910400090B58BB002AF78603EE0294BC7
:1025E0001B68DB681B68FB61264B1B68DB68DB68CC
:1025F000BB61BB6904331846234B9847BB695B6AD0
:10260000B8699847BB69DB69012B27D1BB699A6917
:10261000FB6913447B617A69FB699A420ED9BB69F5
:102620007A695A60BB69BA691A61164B1A68BB6944
:10263000043319461046154B98470FE000230093CA
:102640000023FA690021B869114CA04738613B6941
:10265000002B03D10F4B984700BFFDE7094B1B68C8
:102660001B68002BBBD1074B1B68FB600A4B1B6828
:10267000044A1360084AFB68136000BF2437BD4654
:1026800090BD00BF14A60020F50640008306400060
:10269000E92140004909400018A6002080B500AF9C
:1026A0000E4B98470E4B1B68002B13D10D480E4B59
:1026B00098470E480C4B98470D4B0A4A1A600D4B31
:1026C0000A4A1A6000220C2105200B4B984702464B
:1026D000034B1A60094B984700BF80BD01094000B9
:1026E0001CA60020ECA50020D905400000A6002073
:1026F00014A6002018A600208D0D400021094000DE
:1027000080B483B000AF78607B68072B25D801A226
:1027100052F823F0352740003B2740004127400076
:10272000472740004B2740004F27400053274000D9
:10273000572740004FF4FA4310E04FF400430DE0F8
:102740004FF400430AE0084B08E0084B06E0084B52
:1027500004E0084B02E0064B00E0002318460C376B
:10276000BD465DF8047B704700093D0000127A0009
:10277000001BB7000024F40080B500AF0620054B15
:102780009847024613465B0013449B005B081846BB
:1027900080BD00BF0127400080B500AF024B9847C5
:1027A0000346184680BD00BF7927400080B500AFC2
:1027B000024B98470346184680BD00BF792740006A
:1027C00098B500AF0A20094B9847002304224FF028
:1027D00000610748074CA047002308224FF0006122
:1027E0000348044CA04700BF98BD00BFCD41400046
:1027F00000100E40B5404000F0B5ADB000AF824BC8
:102800009847C7F8AC00D7F8AC30002B01D10023B3
:10281000F6E0D7F8AC30C7F8A8307C4B1B68C7F897
:10282000A43025207A4B98477A4B98477A4B9847A3
:10283000034619464FF000020B461446A60046EA2E
:1028400093769D002B4634465B1844EB0204DB185C
:1028500044EB04041946224643F2AF634FF00004F0
:10286000CD1842EB0406284631466C4C43F2B06268
:102870004FF00003A04703460C461846684B9847A4
:102880000023C7F8A03040F6B832D7F8AC1065483E
:10289000654B9847634B1B69C7F89C30614B1B68BD
:1028A000C7F898305F4B5B69C7F89430D7F894301D
:1028B00003F00703C7F89030D7F894301B0903F0F2
:1028C0000703C7F88C30D7F894301B0A03F00703CE
:1028D000C7F88830D7F894301B0B03F00303C7F810
:1028E0008430D7F894301B0C03F07F03C7F8803096
:1028F000D7F88820D7F88C301A44D7F89030134492
:102900000433FB67D7F880300133FA6F02FB03F31F
:10291000D7F8AC20B2FBF3F3BB67D7F880300133B4
:102920007B677B6FFA6F02FB03F33B67D7F8A0303E
:102930004FF47A7202FB03F3FB663C4BBB66BB6E43
:10294000D7F8AC20B2FBF3F37B667B6E1B09013B2F
:102950003B667A6E3B6E0133B2FBF3F3FB653148A5
:10296000334B98470023FB63012387F84030002353
:1029700087F841300023BB640023FB64082387F8F9
:102980004230FB6BBB6397F840307B63BB6C3B63AF
:10299000FB6CFB6207F13C0319462248254B984724
:1029A00007F13C0319461F48234B984700211D4857
:1029B000224B98470346BB620123BB6003233B7352
:1029C0000F23FB7300237B7300237B6107F1080354
:1029D00019461448174B984701211248174B98473E
:1029E00003467B60D7F8A0301846154B984703463E
:1029F00083F00103DBB2002B01D001233B600123F4
:102A00001846B437BD46F0BDAD2740000C0000208D
:102A1000CD414000C127400099274000514240006D
:102A20000100002000000140AD39400020A1070056
:102A3000ED3D40004D3B4000153B4000EF3A40006B
:102A4000452A400080B58CB000AF7860254B984790
:102A5000F862254B5B69BB62BB6A03F007037B62CC
:102A6000BB6A1B0903F007033B62BB6A1B0A03F046
:102A70000703FB61BB6A1B0C03F07F03BB61FA69B0
:102A80003B6A1A447B6A134404337B61BB6901339C
:102A90007A6902FB03F3FA6AB2FBF3F33B617B68EA
:102AA0004FF47A7202FB03F3FB60FB680F4AA2FB50
:102AB00003235B09BB60FA68BB68D21A3B699A4280
:102AC00007D8FA68BB681A443B699A4201D30123CC
:102AD00000E0002303F00103DBB218463037BD46A7
:102AE00080BD00BFAD274000000001401F85EB51B5
:102AF0002DE9F0489AB000AFF860B9601346FB7159
:102B00000123FB63002387F8403007F13C0319469B
:102B10006348644B9847644B984703464FF0000462
:102B200043F2AF614FF0000213EB010B44EB020CD8
:102B3000584661465D4C43F2B0624FF00003A04737
:102B400003460C4618465A4B98470123FB61032362
:102B500087F820300F2387F82330002387F82130AF
:102B60000023BB62FB689A04524B1340FB6207F1DF
:102B70001C0319464A484B4B984700237B660023A9
:102B80003B66002387F85F3012E097F85F30BA6841
:102B900013441B781A4697F85F30DB0002FA03F300
:102BA0007A6E13437B6697F85F30013387F85F30A6
:102BB00097F85F30032B04D897F85F20FB799A428F
:102BC000E3D3042387F85E3013E097F85E30BA68E9
:102BD00013441B781A4697F85E30043BDB0002FA78
:102BE00003F33A6E13433B6697F85E30013387F880
:102BF0005E3097F85E30072B04D897F85E20FB799B
:102C00009A42E2D37B6E7B633B6EBB63FB7987F8B2
:102C1000223007F11C0319462148274B98470346E9
:102C2000002B09D00123BB6101211D48234B98478C
:102C300003467B6100232EE002211948204B984770
:102C4000194B9847034619464FF000020B461446AD
:102C5000A60046EA93769D002B4634465B1844EB6B
:102C60000204DB1844EB04041946224643F2AF6326
:102C70004FF00004CD1842EB0406284631460B4CB9
:102C800043F2B0624FF00003A04703460C461846DB
:102C9000074B9847012318466837BD46BDE8F088C2
:102CA000000001404D3B4000992740005142400048
:102CB000010000200000FC1F353D4000EF3A4000BD
:102CC000C33A40002DE9F04389B000AF3D483E4B88
:102CD00098473E4B9847034619464FF000020B4673
:102CE00014464FEA840949EA93794FEA8308434638
:102CF0004C465B1844EB0204DB1844EB0404194611
:102D0000224643F2AF634FF0000411EB030842EB9D
:102D10000409404649462E4C43F2B0624FF000038E
:102D2000A04703460C4618462A4B984725482A4B8D
:102D30009847264B9847034619464FF000020B462A
:102D40001446A60046EA93769D002B4634465B184F
:102D500044EB0204DB1844EB04041946224643F218
:102D6000AF634FF00004CD1842EB0406284631460D
:102D7000174C43F2B0624FF00003A04703460C46E5
:102D80001846144B98470F48144B984700233B6054
:102D900001233B7100237B71114BFB604FF00863F3
:102DA0003B613B46194607480E4B98473B46194640
:102DB00004480D4B9847012318462437BD46BDE80B
:102DC000F08300BF00000140553A400099274000C1
:102DD0005142400001000020353A4000ED3D4000E6
:102DE0000000FC1F4D3B4000153B400080B590B0FB
:102DF00000AF78600023FB63444B9847034683F0A1
:102E00000103DBB2002B0DD0FB6B0133FB63FB6BCB
:102E1000642B03D93E4B98470023FB6364203D4B52
:102E2000984772E00023FB6300213B483B4B9847E7
:102E300078637B6B03F40003002B63D00023BB603B
:102E400007F1080319463448354B98470346002BD1
:102E500058D13B691B0CDBB203F00F0387F83B3002
:102E600097F83B30082B02D9082387F83B3007F14D
:102E7000280300221A605A60002387F83A3012E0D3
:102E800097F83A30396A97F83A20D20021FA02F2DC
:102E9000D2B207F140010B4403F8182C97F83A30EE
:102EA000013387F83A3097F83A30032B05D897F872
:102EB0003A2097F83B309A42E2D3002387F8393022
:102EC00013E097F839300433796A97F83920D20043
:102ED00021FA02F2D2B207F140010B4403F8182C98
:102EE00097F83930013387F8393097F83930032BA8
:102EF00006D897F839301A1D97F83B309A42E0DB34
:102F0000FB693B630520034B984775E7252F40007D
:102F1000C52C40004D16400000000140EF3A400033
:102F2000713C400080B584B000AF154B1B6903F4C1
:102F30000023002B01D000231EE0114B1B69FB6016
:102F4000FB6803F43023002B0DD0FB68BB600C48FA
:102F50000C4B984703467B6009480B4B9847034648
:102F60003B60002308E0064B1B6803F00103002BC5
:102F700001D1002300E0012318461037BD4680BD73
:102F8000000001408D3A4000A93A400080B58CB065
:102F900000AF384B1B69FB62364B1B68BB62354B7D
:102FA0005B697B62334B1B6A3B6200213148324BC9
:102FB00098470346FB6101212E482F4B9847034653
:102FC000BB6102212B482C4B984703467B61294863
:102FD0002A4B984703463B612648294B98470346AE
:102FE000FB60FB6903F40003002B14BF01230023E3
:102FF000DBB2FB72BB6903F40003002B14BF012397
:103000000023DBB2BB727B6903F40003002B14BF07
:1030100001230023DBB27B72FB6A03F40023002B45
:1030200014BF01230023DBB23B72FB6A03F480333D
:10303000002B14BF01230023DBB2FB71FB6A03F4F6
:103040000033002B14BF01230023DBB2BB71FB6AEA
:10305000BB6A7B6A3B6AFB69BB697B693B69FB684E
:10306000FB7ABB7A7B7A3B7AFB79BB7900BF30373E
:10307000BD4680BD00000140EF3A40008D3A40005F
:10308000A93A400080B584B000AF78600023FB60AF
:10309000154B98470346FB72F968144BA3FB0123B9
:1030A0009A0813469B001344CA1A002A01D1104BF8
:1030B0009847FB680133FB60FB68092B0FD900239D
:1030C000FB6000233B81FB7A3B7200237B7207F19C
:1030D0000803022219464FF40070064B98474FF43C
:1030E0007A70054B9847D3E7252F4000CDCCCCCC48
:1030F0008D2F4000F12A40004D16400098B500AFDA
:103100000920444B98470C20424B98470923202222
:103110004FF020514048414CA047092302224FF074
:1031200020513D483D4CA04709234FF400424FF049
:1031300020513948394CA04709234FF480324FF0D1
:1031400020513548354CA04700234FF400324FF052
:1031500040513348314CA0474FF400313048314B97
:10316000984700234FF000624FF040512C482B4C01
:10317000A0474FF000612A482A4B98472A4B00226B
:103180001A60294B00225A60274B00229A60264B76
:1031900000221A73244B00225A73234B00229A7385
:1031A000214B0022DA73204B00221A741E4B00229E
:1031B0005A611D4B00229A611B4B0022DA611A4BA7
:1031C00000221A62194B00221A60184B00225A6022
:1031D000164B00229A60154B00221A73134B0022E3
:1031E0005A73124B00229A73104B0022DA730F4B62
:1031F00000221A740D4B00225A610C4B00229A6176
:103200000A4B0022DA61094B00221A620123184698
:1032100098BD00BFCD414000000E0E40B5404000BB
:1032200000140E405D3E400024A6002048A6002069
:1032300080B584B000AF78607B68944A934201D136
:10324000202301E04FF400431A464FF020519048EC
:10325000904B98470346002B14BF01230023DBB299
:103260007B737B68894A934201D1022301E04FF4CA
:1032700080331A464FF020518548864B98470346C5
:10328000002B14BF01230023DBB23B73824B984712
:10329000B8607B685B7B7A7B9A4205D17B689B7BBD
:1032A0003A7B9A4200F011817B685A7B7B68DA7323
:1032B0007B689A7B7B681A747B687A7B5A737B681D
:1032C0003A7B9A730023FB730023BB737B68DB7B21
:1032D000002B33D17B681B7C002B2FD17B685B7B61
:1032E000012B12D17B689B7B002B0ED17B681B6866
:1032F0005A1C7B681A600123FB737B68DB695A1CCC
:103300007B68DA610123BB73BBE07B685B7B002BCE
:1033100040F0B7807B689B7B012B40F0B2807B68DC
:103320001B685A1E7B681A600223FB737B68DB698B
:103330005A1C7B68DA610123BB73A2E07B68DB7BEC
:10334000012B32D17B681B7C002B2ED17B685B7BF1
:10335000012B12D17B689B7B012B0ED17B681B68F4
:103360005A1C7B681A600123FB737B68DB695A1C5B
:103370007B68DA610123BB7385E07B685B7B002B94
:1033800040F081807B689B7B002B7CD17B681B6835
:103390005A1E7B681A600223FB737B68DB695A1C28
:1033A0007B68DA610123BB736DE07B68DB7B012BFB
:1033B00031D17B681B7C012B2DD17B685B7B002B83
:1033C00012D17B689B7B012B0ED17B681B685A1C3A
:1033D0007B681A600123FB737B68DB695A1C7B687E
:1033E000DA610123BB7359E07B685B7B012B55D10C
:1033F0007B689B7B002B51D17B681B685A1E7B68C6
:103400001A600223FB737B68DB695A1C7B68DA61F4
:103410000123BB7342E07B68DB7B002B3FD17B68E1
:103420001B7C012B3BD17B685B7B002B12D17B6823
:103430009B7B002B0ED17B681B685A1C7B681A6033
:103440000123FB737B68DB695A1C7B68DA6101230B
:10345000BB7324E07B685B7B012B20D17B689B7B6B
:10346000012B1CD17B681B685A1E7B681A600223E3
:10347000FB737B68DB695A1C7B68DA610123BB73D1
:103480000DE000BF0BE000BF09E000BF24A6002054
:10349000000E0E40793E40007118400000BFBB7B1B
:1034A000002B0ED0FB7B1A46B9687868184B9847FA
:1034B0000346002B05D07B68FA7B1A737B68BA68D9
:1034C0009A617B68BA685A6108E07B685B69BA6890
:1034D000D31A322B02D97B6800221A737B681B6ACD
:1034E000BA68D31A632B0FD9B9687868094B984723
:1034F00002467B685A607868074B98477B68BA68D1
:103500001A627B680022DA611037BD4680BD00BFB9
:10351000D73540001D3540007D35400080B485B072
:1035200000AF786039607B681B6A002B04D17B6830
:103530003A681A6200231BE07B681B6A3A68D31A58
:10354000BB60BB68002B01D1002311E07B68DB6905
:103550004FF47A7202FB03F2BB68B2FBF3F3FB6039
:103560007B681B7B022B02D1FB685B42FB60FB6824
:1035700018461437BD465DF8047B704780B485B0AB
:1035800000AF78604FF00003FB607B689B6807EE3C
:10359000903AB8EEE77AD7ED037A27EE277AF7EE7E
:1035A000006AD7ED037A76EEE76A7B685B6807EE20
:1035B000903AF8EEE77A66EEA77A77EE277AFDEE94
:1035C000E77A17EE902A7B689A6000BF1437BD46F1
:1035D0005DF8047B704780B485B000AFF860B960D7
:1035E0001346FB71FB681B7BFA799A4201D10023D9
:1035F00013E0FB689B69BA68D31A632B01D80023D8
:103600000BE0FB685B68B3F1FF3F05DBFB685B68C1
:10361000012B01DC002300E0012318461437BD46CE
:103620005DF8047B7047000080B58AB000AF786019
:10363000404B9847034683F00103DBB2002B04D0D4
:103640004FF47A703C4B9847FAE764203A4B98471E
:103650003A483B4B98473B48394B9847374B9B6818
:10366000002B04DA354B9B685B42344A9360334B42
:103670001B7B87F82030314B9B68DBB287F8213009
:103680002E4B9B681B12DBB287F822302B4B9B68BA
:103690001B14DBB287F82330284B9B681B16DBB268
:1036A00087F82430254B1B68DBB287F8253007F1FB
:1036B0002003062219464FF49870234B98471F4B5E
:1036C0001B7BFB611D4B5B68BB611C4B9B687B617B
:1036D0001A4B1B683B611B4B9B68002B04DA194B90
:1036E0009B685B42174A9360164B1B7B3B72154BE2
:1036F0009B68DBB27B72134B9B681B12DBB2BB7205
:10370000104B9B681B14DBB2FB720E4B9B681B16A5
:10371000DBB23B730B4B1B68DBB27B7307F1080317
:103720000622194640F23110074B98470A20024BF7
:1037300098478DE7FD3040004D16400024A600203C
:103740003132400048A60020F12A400080B584B004
:1037500000AF7860AA23FB735523BB73FB7B3B73DD
:10376000BB7B7B7307F10C03022219464FF4907068
:10377000024B98476420024B9847EFE7F12A40003C
:103780004D16400090B585B004AF0023039300238D
:103790000293002301930223009300234FF400724D
:1037A0001A491B481B4CA047002303930023029394
:1037B000002301930123009300234FF480721649E4
:1037C0001648144CA04700230393002302930023C0
:1037D00001930223009300234FF400721049114813
:1037E0000C4CA04700230393002302930023019372
:1037F0000223009300234FF400720B490B48054C41
:10380000A04700BF0437BD4690BD00BF2C49400013
:10381000ED2D4000A51440003449400085304000A3
:10382000404940004D3740004C4940002936400097
:1038300080B582B000AF064B9847064B9847064BC1
:103840001B687B60002318460837BD4680BD00BF5B
:10385000F10140000D0440000C00002080B58AB04A
:1038600000AFF860B9607A607B6846F2A81202FB8C
:1038700003F2BB6813445A1E7B6846F2A81101FB91
:1038800003F3B2FBF3F3802B01D9002386E0BB687E
:103890005A087B684FF4FA5101FB03F39A4201D2B4
:1038A00000237BE0082387F827304FF0FF333B628B
:1038B0000823FB772AE0FB7F7A6802FB03F34FF4CF
:1038C0007A7202FB03F3BA68B2FBF3F3802B1AD8C7
:1038D000FB7F7A6802FB03F34FF47A7202FB03F278
:1038E000BB68B3FBF2F102FB01F29B1ABB61BA6940
:1038F0003B6A9A4207D2BB693B62FB7F87F827305D
:103900003B6A002B06D0FB7F0133FB77FB7F192B33
:10391000D1D900E000BF97F827307A6802FB03F3A3
:103920004FF47A7202FB03F3BA68B2FBF3F3FB7550
:10393000FB7D012B01D8002330E097F82730A3F15D
:10394000080213465B0013445B00164A13443B61B4
:10395000F868154B98473B69DB78013B03F0070299
:103960003B699B78013B1B0103F070031A433B69E1
:103970005B78013B1B0203F4E0631A433B691B794C
:10398000013B1B0303F440531A43FB7D013B1B0423
:1039900003F4FE031A43FB685A61012318462837D3
:1039A000BD4680BD54494000553A400080B586B0C0
:1039B00000AFF860B9607A607A68B968F868174B48
:1039C000984778617B69002B01D1002321E0F868DA
:1039D000134B9847F868134B984700237B610023EB
:1039E0003B6106E0F868104B984778613B6901330A
:1039F0003B617B6903F40013002B03D13B690B4A45
:103A00009342EFD93B690A4A934201D1002300E077
:103A1000012318461837BD4680BD00BF5D38400001
:103A2000ED3D4000353A4000753A40009F86010068
:103A3000A086010080B483B000AF78607B681B680B
:103A400043F001027B681A6000BF0C37BD465DF889
:103A5000047B704780B483B000AF78607B681B68DC
:103A600023F001027B681A6000BF0C37BD465DF889
:103A7000047B704780B483B000AF78607B681B69BB
:103A800018460C37BD465DF8047B704780B483B0A0
:103A900000AF78607B681B6A1B0CDBB218460C37E2
:103AA000BD465DF8047B704780B483B000AF78609A
:103AB0007B681B6ADBB218460C37BD465DF8047B99
:103AC000704780B485B000AF78600B46FB707B68B0
:103AD0005B6A23F0FF03FB60FA78FB681A437B689C
:103AE0005A6200BF1437BD465DF8047B704780B44E
:103AF00083B000AF78600B46FB70FB787A685B019F
:103B0000134403F504731B6818460C37BD465DF873
:103B1000047B704780B485B000AF786039603B6843
:103B20001B68FB73FB7B3A689279120402F47022E3
:103B300042F4000279685B010B4403F507731A60D5
:103B400000BF1437BD465DF8047B704780B485B074
:103B500000AF786039603B681B68FB733B681B797A
:103B6000002B2FD1FB7B7A6810335B0113440022BA
:103B70001A60FB7B7A6810335B0113440433002224
:103B80001A60FB7B7A685B01134403F50273002221
:103B90001A60FB7B7A685B01134403F5057300220E
:103BA0001A60FB7B7A685B01134403F506730022FD
:103BB0001A60FB7B7A685B01134403F507730022EC
:103BC0001A6050E0FB7BFA7B7968103252010A449C
:103BD000126822F470223968C97909040A437968A5
:103BE00010335B010B441A603B685B79002B16D0E5
:103BF000FB7B3A68D26842F00052796810335B016F
:103C00000B4404331A60FB7B3A68126942F000529D
:103C100079685B010B4403F502731A6011E0FB7BCA
:103C20003A68D268796810335B010B4404331A6038
:103C3000FB7B3A68126979685B010B4403F50273F8
:103C40001A60FB7BFA7B7968103252010A441268D1
:103C500022F0E0623968097909060A43796810336D
:103C60005B010B441A601437BD465DF8047B704756
:103C700080B586B000AF7860396000237B613B6817
:103C80001B68FB743B689B68FB60FB6803F40003E4
:103C9000002B06D0FB6803F08073002B01D00223B9
:103CA0007B61FB7C7A685B01134403F503731B683B
:103CB00023F060423B685A61FB681B0CDBB203F0E7
:103CC0000F03DAB23B689A71FB7C7A685B0113449C
:103CD00003F505731A683B689A613B689B79042B6E
:103CE00008D9FB7C7A685B01134403F506731A68F4
:103CF0003B68DA61FB7C7A685B01134403F504736B
:103D00001A683B689A603B689B68FB60FB6803F03D
:103D10008073002B03D07B6943F004037B61396817
:103D20007868034B98477B6918461837BD4680BDB5
:103D3000153B400080B584B000AF786039603B68C7
:103D40001B68FB73FB7B19467868274B9847024634
:103D50003B689A603B689B68BB60BB6803F40003E8
:103D6000002B01D101233BE03B685B79002B0BD09A
:103D7000FB7B3A68126942F0005279685B010B44A0
:103D800003F502731A6008E0FB7B3A6812697968F0
:103D90005B010B4403F502731A60FB7B3A6892697E
:103DA00079685B010B4403F505731A603B689B79E6
:103DB000042B08D9FB7B3A68D26979685B010B4414
:103DC00003F506731A60FB7B3A689279120402F4D9
:103DD000702279685B010B4403F507731A600023B6
:103DE00018461037BD4680BDEF3A400080B58CB014
:103DF00000AF786000233B74002387F82F300DE07C
:103E000097F82F30FB6007F10C0319467868074BD1
:103E1000984797F82F30013387F82F3097F82F30D5
:103E2000072BEDD900BF3037BD4680BD4D3B40006C
:103E300080B485B000AFF860B9607A607B68002B11
:103E400003D0FB68BA685A6602E0FB68BA681A6673
:103E500000BF1437BD465DF8047B704780B483B063
:103E600000AF786039607B683A685A6300BF0C37EE
:103E7000BD465DF8047B704780B487B000AFF86042
:103E8000B9607A60BB68B3F1405F03D0BB68B3F13F
:103E9000605F03D1FB689B6B7B6102E0FB68DB6BBF
:103EA0007B617A697B681340002B01D1002300E01D
:103EB000012318461C37BD465DF8047B704780B46B
:103EC00087B000AFF860B9607A60FB687A685A64BE
:103ED000BB68B3F1C05F4AD0B3F1C05F08D8B3F19B
:103EE000006F16D0B3F1805F2CD0002B69D064E056
:103EF000B3F1205F65D0B3F1205F03D8B3F1005F69
:103F00004AD05AE0B3F1405F5BD0B3F1605F58D064
:103F100053E0FB681B6F7B61FB681A6F7B68D943BA
:103F20007B690B401A40FB681A67FB685B6F7B611B
:103F3000FB685A6F7B68D9437B690B401A40FB686A
:103F40005A673AE0FB681B6F7B617A687B691A43AA
:103F5000FB681A67FB685B6F7B61FB685A6F7B6865
:103F6000D9437B690B401A40FB685A6725E0FB6820
:103F70001B6F7B61FB681A6F7B68D9437B690B40C1
:103F80001A40FB681A67FB685B6F7B617A687B6924
:103F90001A43FB685A6710E0FB681B6F7B617A6805
:103FA0007B691A43FB681A67FB685B6F7B617A6801
:103FB0007B691A43FB685A6700BFFB687A685A60DE
:103FC00000E000BF1C37BD465DF8047B7047000071
:103FD00080B584B000AFF860B9607A60B968F868FD
:103FE000194B98477B6803F001031A46B968F868D3
:103FF000164B98477B6803F00A03002B03D0FB683D
:10400000BA681A6202E0FB68BA685A627B6803F019
:104010000203002B04D0FB68BA68C3F8802008E0D4
:104020007B6803F00803002B03D0FB68BA68C3F871
:104030008420FB68BA685A61FB68BA681A6000BFDE
:104040001037BD4680BD00BF81414000313E400079
:1040500080B584B000AFF860B9607A603B60B96841
:10406000F868124B9847BA69B968F868104B9847D6
:104070003B68002B03D0FB68BA681A6502E0FB6856
:10408000BA685A657B68002B03D0FB68BA681A636C
:1040900002E0FB68BA685A63FB68BA681A61FB6899
:1040A000BA681A6000BF1037BD4680BD814140002C
:1040B000313E400090B587B002AFF860B9607A60D9
:1040C0003B60BB68B3F1005F16D0B3F1005F09D865
:1040D000B3F1805F10D0B3F1C05F0DD0B3F1006FCA
:1040E0000AD03DE0B3F1405F1AD0B3F1605F17D062
:1040F000B3F1205F0ED033E07A68B968F8681C4BE2
:1041000098473B6803F001031A467968F868194B31
:10411000984727E03A687968F868174B984721E094
:10412000BB68B3F1605F0CBF01230023DBB21A460A
:104130003B6803F00403002B14BF01230023DBB210
:1041400019463B6803F00103002B14BF0123002331
:10415000DBB200930B467968F868084CA04701E091
:10416000002300E0012318461437BD4690BD00BF70
:10417000BF3E4000313E4000D13F40005140400032
:1041800080B483B000AF786039607B683A685A6465
:1041900000BF0C37BD465DF8047B704780B483B028
:1041A00000AF78607B68DB6C18460C37BD465DF865
:1041B000047B704780B483B000AF78607B689B6CF1
:1041C00018460C37BD465DF8047B704780B483B059
:1041D00000AF78607B682F2B01D901232FE07B682B
:1041E0001F2B13D8194B9A6901217B6801FA03F33D
:1041F0001A4001217B6801FA03F39A421ED0134A48
:1042000001217B6801FA03F3136117E07B68203B0F
:104210007B600E4BD3F8082101217B6801FA03F380
:104220001A4001217B6801FA03F39A4206D0074A3B
:1042300001217B6801FA03F3C2F80031002318461C
:104240000C37BD465DF8047B704700BF00040E408C
:1042500053B94AB9002908BF00281CBF4FF0FF31ED
:104260004FF0FF3000F07AB9ADF1080C6DE904CEE3
:1042700000F006F8DDF804E0DDE9022304B0704741
:104280002DE9F0478C460D460446089E002B51D17F
:104290008A4217466DD9B2FA82FEBEF1000F0BD0EA
:1042A000CEF1200C01FA0EF520FA0CFC02FA0EF702
:1042B0004CEA050C00FA0EF44FEA174A250CBCFB39
:1042C000FAF81FFA87F90AFB18CC45EA0C4508FBF7
:1042D00009F3AB420AD9ED1908F1FF3280F02381CE
:1042E000AB4240F22081A8F102083D44ED1AA4B28D
:1042F000B5FBFAF00AFB105544EA054400FB09F946
:10430000A14509D9E41900F1FF3380F00A81A145E4
:1043100040F2078102383C44A4EB090440EA08401B
:104320000021002E61D024FA0EF400233460736063
:10433000BDE8F0878B4207D9002E54D0002186E8D3
:1043400021000846BDE8F087B3FA83F1002940F068
:104350008E80AB4202D3824200F2FA80841A65EB6F
:1043600003050120AC46002E3FD086E81010BDE8C2
:10437000F08712B90127B7FBF2F7B7FA87FEBEF153
:10438000000F34D1EB1B3A0C1FFA87FC0121B3FB61
:10439000F2F8250C02FB183345EA03450CFB08F341
:1043A000AB4207D9ED1908F1FF3002D2AB4200F25F
:1043B000D1808046ED1AA3B2B5FBF2F002FB105596
:1043C00043EA05440CFB00FCA44507D9E41900F1BD
:1043D000FF3302D2A44500F2B8801846A4EB0C04C7
:1043E00040EA08409DE731463046BDE8F087CEF10F
:1043F000200405FA0EF307FA0EF720FA04F83A0C37
:1044000025FA04F448EA0308B4FBF2F14FEA184530
:1044100002FB11441FFA87FC45EA044501FB0CF33B
:10442000AB4200FA0EF409D9ED1901F1FF3080F02A
:104430008A80AB4240F2878002393D44EB1A1FFA72
:1044400088F5B3FBF2F002FB103345EA034500FBAD
:104450000CF3AB4207D9ED1900F1FF386FD2AB4234
:104460006DD902383D44EB1A40EA01418FE7C1F1B2
:10447000200722FA07F88B4005FA01F448EA030303
:1044800020FA07FE4FEA134CFD404EEA040EB5FB3E
:10449000FCF94FEA1E440CFB19551FFA83F844EA55
:1044A000054509FB08F4AC4202FA01F200FA01FAF0
:1044B00008D9ED1809F1FF3043D2AC4241D9A9F136
:1044C00002091D442D1B1FFA8EFEB5FBFCF00CFBF0
:1044D00010554EEA054400FB08F8A04507D9E4183A
:1044E00000F1FF3529D2A04527D902381C4440EA03
:1044F0000940A4EB0804A0FB02894C45C6464D4682
:1045000015D312D056B1BAEB0E0364EB050404FACE
:1045100007F7CB401F43CC40376074600021BDE8F3
:10452000F0871846F8E69046E0E6C245EAD2B8EBD6
:10453000020E69EB03050138E4E72846D7E7404659
:1045400091E78146BEE7014678E702383C4445E7FB
:10455000084608E7A8F102083D442BE7704700BF72
:1045600070B50F4E0F4D761BB61018BF002405D046
:10457000013455F8043B9847A642F9D10A4E0B4D39
:10458000761B00F01FFAB61018BF002406D00134C5
:1045900055F8043B9847A642F9D170BD70BD00BFE5
:1045A000D0494000D0494000D8494000D04940009F
:1045B000844641EA000313F003036DD1403A41D32E
:1045C00051F8043B40F8043B51F8043B40F8043BED
:1045D00051F8043B40F8043B51F8043B40F8043BDD
:1045E00051F8043B40F8043B51F8043B40F8043BCD
:1045F00051F8043B40F8043B51F8043B40F8043BBD
:1046000051F8043B40F8043B51F8043B40F8043BAC
:1046100051F8043B40F8043B51F8043B40F8043B9C
:1046200051F8043B40F8043B51F8043B40F8043B8C
:1046300051F8043B40F8043B51F8043B40F8043B7C
:10464000403ABDD2303211D351F8043B40F8043B1C
:1046500051F8043B40F8043B51F8043B40F8043B5C
:1046600051F8043B40F8043B103AEDD20C3205D32C
:1046700051F8043B40F8043B043AF9D2043208D024
:10468000D2071CBF11F8013B00F8013B01D30B8896
:1046900003806046704700BF082A13D38B078DD074
:1046A00010F003038AD0C3F10403D21ADB071CBF46
:1046B00011F8013B00F8013B80D331F8023B20F8B0
:1046C000023B7BE7043AD9D3013A11F8013B00F8E9
:1046D000013BF9D20B7803704B7843708B78837071
:1046E0006046704770B4860746D0541E002A41D0F9
:1046F000CAB2034602E014F1FF343BD303F8012BA6
:104700009D07F8D1032C2ED9CDB245EA05250F2CF3
:1047100045EA054519D903F110022646103E0F2E31
:1047200042F8105C42F80C5C42F8085C42F8045C09
:1047300002F11002F2D8A4F1100222F00F0204F0EC
:104740000F041032032C13440DD91E462246043A9E
:10475000032A46F8045BFAD8221F22F0030204322F
:10476000134404F003042CB1C9B21C4403F8011B28
:104770009C42FBD170BC704714460346C2E700BFA1
:1047800040EA010313F0030F70B4034624D0A2B132
:104790000C781C70013A013301313CB16AB111F857
:1047A000014B03F8014B013A002CF7D12AB11A440E
:1047B000002103F8011B9A42FBD170BC70470E46E2
:1047C00051F8045BA5F1013424EA050414F0803F9C
:1047D00005D143F8045B043A032AF0D8D7E7314601
:1047E000D6E700BF024B13B1024800F005B870478E
:1047F0000000000005484000002301461A46184604
:1048000000F01EB838B50A4C0A4D641BA4100AD03B
:1048100004F18043013B05EB8305013C55F8043965
:104820009847002CF9D1BDE8384000F0D5B800BF5A
:10483000E8494000E4494000704700BF704700BFAE
:104840002DE9F8432C4D0646286898460F469146B8
:10485000FFF7F2FF294B1C68D4F84831002B3ED0FB
:104860005A681F2A1CDC02F1010E76B103EB8201AB
:104870000124C1F88890D3F8880194402043022E87
:10488000C3F88801C1F8088123D00232C3F804E0DC
:10489000286843F82270FFF7D1FF0020BDE8F883B5
:1048A000174B0BB34FF4C870AFF300800346D8B179
:1048B000D4F848210260002141600A46C4F848014A
:1048C0004FF0010EC0F88811C0F88C11002EDCD01A
:1048D000CCE7D3F88C110C43C3F88C41D5E704F531
:1048E000A673C4F84831BBE72868FFF7A7FF4FF06D
:1048F000FF30BDE8F88300BF48040020C0494000F5
:104900000000000049444C45000000000D0A000072
:104910002573090925630925750925750925750D6F
:104920000A000000546D72205376630063616E725A
:104930007800000063616E73746174757300000029
:10494000746573745461736B00000000656E636F6F
:104950006465720008030202034B09020303024369
:104960000A03030303460B04030304480C03040473
:1049700004430D040404044D0E04040504400F0414
:104980000505044310050505044511060505044702
:104990001205060604431306060604441407060619
:1049A00004461508060604471607070704441708B7
:1049B00008070446180708080443190808080444AF
:1049C00020000020F8B500BFF8BC08BC9E46704728
:1049D000E54740001D014000F8B500BFF8BC08BC29
:0849E0009E467047F9004000FB
:0849E80098F8FF7F01000000B8
:1049F000BFF35F8F0138FBD17047000000093D0015
:104A0000AAAAAAAA00A00000FFFFFFFF0000000062
:104A1000000000000C03002074030020DC030020D1
:104A20000000000000000000000000000000000086
:104A30000000000000000000000000000000000076
:104A40000000000000000000000000000000000066
:104A50000000000000000000000000000000000056
:104A60000000000000000000000000000000000046
:104A70000000000000000000000000000000000036
:104A80000000000000000000000000000000000026
:104A90000000000000000000000000000000000016
:104AA0000000000000000000000000000000000006
:104AB00000000000000000000100000000000000F5
:104AC0000E33CDAB34126DE6ECDE05000B000000BA
:104AD00000000000000000000000000000000000D6
:104AE00000000000000000000000000000000000C6
:104AF00000000000000000000000000000000000B6
:104B000000000000000000000000000000000000A5
:0C4E3000000000000000000070A6002040
:040000050040016551
:00000001FF
